:100000000C9434000C9451000C9451000C94510049
:100010000C9461000C9451000C9451000C9451000C
:100020000C9451000C9451000C9451000C94D40287
:100030000C9451000C9451000C94F6020C94510055
:100040000C9451000C9451000C9451000C945100EC
:100050000C9451000C9451000C9451000C945100DC
:100060000C9451000C94510011241FBECFEFD8E026
:10007000DEBFCDBF11E0A0E0B1E0E4EDF2E102C0EF
:1000800005900D92AA34B107D9F721E0AAE4B1E0B6
:1000900001C01D92A835B207E1F70E941A030C9423
:1000A00068090C94000005966AE070E00E94DF0584
:1000B0006150710908F4089585E38A95F1F700000D
:1000C000F7CF1F920F920FB60F9211242F933F93E9
:1000D0004F938F939F93409155014093540186B164
:1000E00090E09C01359527952170209357019595B7
:1000F00087959595879581708093560141115CC0D5
:10010000222309F452C081E08093550180910001BF
:1001100090910101892B09F074C080914E0190915A
:100120004F01019790934F0180934E0180915001B0
:100130009091510197FF04C010925101109250010B
:100140008091500190915101899734F088E290E0BC
:10015000909351018093500180914E0190914F01F5
:1001600097FF04C010924F0110924E0180914E01F2
:1001700090914F01899734F088E290E090934F017D
:1001800080934E0180915501481729F091E090939A
:100190000401809354019F918F914F913F912F9132
:1001A0000F900FBE0F901F901895882309F4BECFB3
:1001B00083E0809355010AC04130A1F4882311F0F7
:1001C00082E0A2CF2111B2CF10925501809100019F
:1001D00090910101892B21F580914E0190914F0161
:1001E0000196A0CF423041F4211102C083E08CCFB0
:1001F00081119CCF81E0DDCF81110DC0109255019E
:1002000085CF8091500190915101019790935101B8
:10021000809350018BCF222309F488CF82E0C9CF8D
:1002200080915001909151010196F0CF880F991F54
:10023000909353018093520125B5246025BD9C0104
:1002400050E040E060E074E284EF90E00E94150628
:1002500027BD0895E0EBF0E080818360808380819A
:1002600080688083E1EBF0E080818760808308957F
:10027000249A8FE599E00197F1F700C000002498D7
:100280008BE091E00197F1F700C000001C990AC0D3
:100290001C9BFECF87EC90E00197F1F700C00000B7
:1002A00081E0089580E00895249A8AE08A95F1F724
:1002B00000C024988FEE90E00197F1F700C0000095
:1002C0000895249A8FEE90E00197F1F700C00000A6
:1002D00024989AE09A95F1F700C00895CF93DF93A0
:1002E000D82FC8E0D0FF08C00E945401D695C15055
:1002F000C9F7DF91CF9108950E946101F7CF0E9465
:100300003801882331F08CEC0E946E0184E40C9457
:100310006E010895249A8AE08A95F1F700C0249826
:10032000E5E3EA95F1F7000083B1E7ECF0E03197FF
:10033000F1F700C000008295817008951F93CF935C
:10034000DF93D8E011E0C0E00E948A018111C12B47
:10035000110FD150C9F78C2FDF91CF911F910895C4
:10036000EF92FF920F931F93CF93DF93CDB7DEB73A
:1003700029970FB6F894DEBF0FBECDBF24982C98F6
:100380002FEF81EE94E0215080409040E1F700C0D3
:1003900000001C990EC080E029960FB6F894DEBFCD
:1003A0000FBECDBFDF91CF911F910F91FF90EF90C6
:1003B00008950E943801882371F38CEC0E946E012D
:1003C0008EEB0E946E018E010F5F1F4F7E01EAE0EF
:1003D000EE0EF11C0E949E01F80181938F01EE1533
:1003E000FF05C1F70E9438018823A9F28CEC0E9416
:1003F0006E018EE40E946E018B810E946E018C81E1
:100400000E946E018FE70E946E018FE891E00197D4
:10041000F1F700C000000E943801882309F4BBCF27
:100420008CEC0E946E0188E40E946E019FEFE9EF60
:10043000F0E09150E040F040E1F700C0000081E0C2
:10044000ABCFCF93DF93EC010E948A01882301F1A7
:100450000E9438018823D1F08CEC0E946E018EEB53
:100460000E946E010E949E0188830E949E018983E2
:100470000E949E010E949E010E949E010E949E0178
:100480000E949E010E949E010E949E0181E001C087
:1004900080E0DF91CF9108959BB19F709BB99BB194
:1004A000807F892B8BB9299A299A299A29980895AE
:1004B000CF93C82F2898807F0E944C028C2F829562
:1004C000807F0E944C028FE39FE10197F1F700C00B
:1004D0000000CF910895811104C080E8860F0C942C
:1004E000580280ECFBCF84B1836084B98AB1806FFD
:1004F0008AB922988FE59AEE0197F1F700C00000C3
:1005000080E30E944C028FE19EE40197F1F700C066
:10051000000080E30E944C028FED91E00197F1F71B
:1005200000C0000080E30E944C0280E20E944C0266
:100530008FE39FE10197F1F700C0000088E20E947D
:1005400058028FE00C945802CF93C82F289A807FCE
:100550000E944C028C2F8295807F0E944C028FE378
:100560009FE10197F1F700C00000CF910895CF936C
:10057000DF93EC018991811103C0DF91CF91089540
:100580000E94A402F7CFE1E8F0E0808188608083D8
:10059000EFE6F0E080818260808384E294EF9093C4
:1005A00089008093880008951F920F920FB60F92D2
:1005B00011248F93EF93FF93E1E8F0E08081887F2F
:1005C000808310924B0110924A01FF91EF918F911D
:1005D0000F900FBE0F901F90189584B5826084BD58
:1005E000EEE6F0E080818260808308951F920F9292
:1005F0000FB60F9211248F939F9385B190E28927B4
:1006000085B98091520190915301019790935301C4
:10061000809352018091520190915301892B19F4DA
:1006200085B5887F85BD9F918F910F900FBE0F90EC
:100630001F901895CF93DF93CDB7DEB768970FB6AD
:10064000F894DEBF0FBECDBF8BB18C608BB988B183
:10065000886388B987B1886387B988B1866088B9AB
:1006600087B1897F87B98091680082608093680034
:1006700080916C00866080936C00259A239A0E947A
:1006800073020E94ED020E94C3020E942A01789424
:1006900081E00E94580262E080E00E946B0285E0E7
:1006A00091E00E94B70262E081E00E946B0282E169
:1006B00091E00E94B7022FEF33ED40E3215030402C
:1006C0004040E1F700C0000081E00E94580260E075
:1006D00080E00E946B028EE191E00E94B70260E030
:1006E00081E00E946B0284E291E00E94B70268E020
:1006F00081E00E946B0289E291E00E94B7028FEFD5
:1007000093ED20E3815090402040E1F700C00000CD
:1007100086B1082F10E081FFBEC191E09093570190
:1007200082FFBCC181E08093560180915701909176
:1007300056019111BAC18111B4C110925401809136
:100740005401809355010E94B0010E947F01C801AD
:100750009595879581708093570115950795159507
:1007600007950170009356010111A9C18111A3C120
:1007700010925401809154018093550184E690E0D9
:100780000E941709182F8093020185E690E00E94CD
:100790001709809303011253193218F092E39093D2
:1007A00002018253893218F082E380930301809121
:1007B00003018253990B90935101809350018091D2
:1007C00002018253990B90934F0180934E016DE08B
:1007D00081E00E946B02809103011F928F933FE2A0
:1007E000C32E31E0D32EDF92CF921F924AE0B42E77
:1007F000BF928E010F5F1F4F1F930F930E946906D8
:10080000C8010E94B70264E081E00E946B028091FF
:1008100002011F928F93DF92CF921F92BF921F937C
:100820000F930E946906C8010E94B7020FB6F894A0
:10083000DEBF0FBECDBF2FEF3FEF388F2F8B55E0C0
:10084000452E512C612C712C065F1F4FCC24C39474
:10085000D12C7CE3272E312CCE0145960E9421021B
:10086000882309F44AC066E080E00E946B02AE89EA
:10087000B0E0BA2FAA278D89A80FB11D29E030E07A
:100880000E943406A30192010E94F3053E5F4F4F80
:100890005F4F49015A0194E0B694A79497948794C6
:1008A0009A95D1F774012F70332744275527AAE072
:1008B000B0E00E943B06DC01CB0124E0B695A79591
:1008C000979587952A95D1F79F938F939F928F92B3
:1008D00083E391E09F938F931F9230E13F931F93A7
:1008E0000F930E946906C8010E94B7020E947F010F
:1008F0000FB6F894DEBF0FBECDBF9FEF21EE34E000
:10090000915020403040E1F700C000004A99DDC01E
:1009100063E081E00E946B028DE291E00E94B702E9
:100920006CE081E00E946B0289E391E00E94B702D3
:10093000D0924B01C0924A018091810085608093E2
:1009400081001092010110920001188E1F8A3FEF62
:1009500041EE84E0315040408040E1F700C00000AB
:1009600080910401882379F1109204012F89388D38
:10097000232B09F4D0C080915001909151018E5CDD
:10098000809303016DE081E00E946B02809103017E
:100990001F928F938FE291E09F938F931F923AE083
:1009A0003F931F930F930E946906C8010E94B702EC
:1009B0006091030185E690E00E941F090FB6F8944C
:1009C000DEBF0FBECDBF809102018E151F0409F05E
:1009D0000CF4C3C06BE080E00E946B028BE391E0FB
:1009E0000E94B70288B1886388B9439880914C010E
:1009F00090914D01892B91F4809102018250990BC5
:100A0000E816F9065CF08091030190E002968E15DD
:100A10009F0524F0D0924D01C0924C0180914C0171
:100A200090914D010197A1F4809102018350990B9F
:100A3000E816F9063CF08091030190E003968E15CC
:100A40009F0534F482E090E090934D0180934C0137
:100A500080914C0190914D01029741F480E991E021
:100A60000E94160110924D0110924C0180914A0192
:100A700090914B01892B09F08EC048EE97014203FB
:100A8000C001439F900D1124B1010E94DF056C5CF1
:100A90006093B300E1CE1092570142CE10925601FE
:100AA00044CE81E0809354014ACE811102C082E09D
:100AB000F9CF83E0F7CF81E0809354015BCE8111C1
:100AC00002C082E0F9CF83E0F7CF4B9940CF63E0DB
:100AD00081E00E946B0289E391E00E94B7026CE022
:100AE00081E00E946B028DE291E00E94B70282E0F9
:100AF00090E090934B0180934A0180918100856042
:100B000080938100D0920101C092000121E030E089
:100B1000388F2F8B1CCF80914E0190914F018E5CAE
:100B20008093020164E081E00E946B0280910201E7
:100B30001F928F932FE231E03F932F931F928AE011
:100B40008F931F930F930E946906C8010E94B702FA
:100B50006091020184E690E02FCF809103016BE069
:100B60008E151F0464F480E00E946B0280E491E023
:100B70000E94B70288B1886388B9459837CF80E072
:100B80000E946B0284E491E00E94B70288B18863FE
:100B900088B944982BCF80914A0190914B010197DD
:100BA00039F42091020138EE3203C00111246CCFD8
:100BB0002091030148EE4203C001112465CF97FB49
:100BC000072E16F4009407D077FD09D00E94460640
:100BD00007FC05D03EF4909581959F4F0895709540
:100BE00061957F4F0895A1E21A2EAA1BBB1BFD0140
:100BF0000DC0AA1FBB1FEE1FFF1FA217B307E407FC
:100C0000F50720F0A21BB30BE40BF50B661F771F53
:100C1000881F991F1A9469F7609570958095909533
:100C20009B01AC01BD01CF010895052E97FB1EF479
:100C300000940E942C0657FD07D00E94F30507FC84
:100C400003D04EF40C942C06509540953095219588
:100C50003F4F4F4F5F4F08959095809570956195E8
:100C60007F4F8F4F9F4F08950E945A06B7FF0895F8
:100C7000821B930B08950E945A06A59F900DB49F66
:100C8000900DA49F800D911D11240895AA1BBB1BDC
:100C900051E107C0AA1FBB1FA617B70710F0A61B7C
:100CA000B70B881F991F5A95A9F780959095BC019D
:100CB000CD010895A29FB001B39FC001A39F700D05
:100CC000811D1124911DB29F700D811D1124911D54
:100CD0000895AEE0B0E0EFE6F6E00C943F090D8930
:100CE0001E898F89988D26E02C831A83098397FFAC
:100CF00002C080E090E801979E838D83AE01455E3F
:100D00005F4F698D7A8DCE0101960E9499064D81C3
:100D10005E8157FD0AC02F813885421753070CF4B6
:100D20009A01020F131FF80110822E96E4E00C9432
:100D30005B09ABE0B0E0EFE9F6E00C9431097C012F
:100D40003B018A01FC0117821682838181FFC8C1A1
:100D5000CE0101965C01F7019381F30193FD85912A
:100D600093FF81913F01882309F453C1853239F4FF
:100D700093FD859193FF81913F01853229F4B7015D
:100D800090E00E948908E7CF912C212C312CFFE1C3
:100D9000F31538F08B3211F190F4803209F183327F
:100DA00029F137FC3CC020ED280F2A3050F536FEE3
:100DB00020C08AE0989E200D1124922E06C08D320C
:100DC00091F0803371F7689430F8F30193FD8591C9
:100DD00093FF81913F018111DACF21C0689431F8EE
:100DE000689432F8F2CF689433F8EFCF689434F80F
:100DF000ECCFEAE02E9E200D1124222E689435F8C7
:100E0000E4CF8E3229F436FC04C1689436F8DDCF85
:100E10008C3619F4689437F8D8CF8836B1F2982F09
:100E20009F7D95549330E0F08336A1F18337C1F173
:100E3000833509F063C02801F2E04F0E511CF80120
:100E4000C080D180692D70E036FC02C06FEF7FEF6B
:100E5000C6010E9473084C01689437F882010AC0E9
:100E60000C5F1F4FFFE3F98388248394912C650165
:100E7000E89437F833FE2DC0522C8114910471F59B
:100E8000552009F468CFB70180E290E00E948908FC
:100E90005A94F6CFF801808189830E5F1F4FE4CF0B
:100EA0002801F2E04F0E511CF801C080D180692D5D
:100EB00070E036FC02C06FEF7FEFC6010E947E0833
:100EC0004C018201D5CFB70180E290E00E948908F1
:100ED0002A942814190409F0B0F7CECFF60137FC94
:100EE000859137FE81916F01B70190E00E948908DA
:100EF00051105A94F1E08F1A9108BFCF843619F03F
:100F0000893609F077C0F80137FE6BC060817181C6
:100F1000828193810C5F1F4FF32DFF763F2E97FF49
:100F200009C090958095709561957F4F8F4F9F4F29
:100F3000689437F82AE030E0A5010E94B908C82E6D
:100F4000CA188C2C432C36FE0CC0E89440F8C91407
:100F500040F434FE05C032FC03C0F32DFE7E4F2E5C
:100F6000892C44FE95C0FE01EC0DF11D808180337B
:100F700009F087C0242D297E422E842D8870582E9A
:100F800043FC95C040FE8FC09C2C821418F42C0C9E
:100F9000922C981844FE91C0B70180E390E00E9423
:100FA000890842FE09C088E790E041FE02C088E55A
:100FB00090E0B7010E948908C91408F48AC0CA9455
:100FC000D12C9FEFC91AD90ACA0CDB1CF6018291F9
:100FD0006F01B70190E00E948908AC14BD04B1F71D
:100FE0004FCF60817181072E000C880B990B0E5F2B
:100FF0001F4F92CFD32CE894D4F82AE030E0853705
:1010000039F1232D297FD22E8F3601F148F488350E
:10101000A9F0F701868197812B96E2E10C944D09A6
:10102000803749F08837A9F7D4FE02C06894D2F817
:1010300020E130E00DC06894D4F8F6CF34FE03C050
:10104000822F8660D82E20E132E002C028E030E016
:10105000F801D7FE0FC060817181828193810C5F9E
:101060001F4FA5010E94B908C82ECA183D2CE8944C
:1010700037F867CF6081718190E080E00E5F1F4F8D
:10108000F0CF42FC02C0839478CF8394839475CFD1
:10109000842D867809F471CFF6CFB70180E290E015
:1010A0000E94890883948214C0F3512C73CF522C70
:1010B0005818821408F46ECFF8CF842D867809F47E
:1010C0007BCF8BE241FE80E247FC8DE2B70190E0EE
:1010D00071CFB70180E390E00E9489089A946CCFA9
:1010E0008FEF9FEF99CFFC01059061507040011088
:1010F000D8F7809590958E0F9F1F0895FC01615041
:10110000704001900110D8F7809590958E0F9F1F29
:1011100008950F931F93CF93DF93182F092FEB019F
:101120008B8181FD09C01FEF0FEF812F902FDF9181
:10113000CF911F910F91089582FF14C02E813F819E
:101140008C819D81281739073CF4E881F981CF0112
:1011500001969983888310838E819F8101969F8356
:101160008E83E3CFE885F985812F0995892BA1F33B
:10117000DACFFA01AA27283051F1203181F1E89421
:101180006F936E7F6E5F7F4F8F4F9F4FAF4FB1E07A
:101190003ED0B4E03CD0670F781F891F9A1FA11D75
:1011A000680F791F8A1F911DA11D6A0F711D811D76
:1011B000911DA11D20D009F468943F912AE0269F3B
:1011C00011243019305D3193DEF6CF010895462F9A
:1011D0004770405D4193B3E00FD0C9F7F6CF462F7B
:1011E0004F70405D4A3318F0495D31FD40524193E4
:1011F00002D0A9F7EACFB4E0A695979587957795A1
:101200006795BA95C9F700976105710508959B0127
:10121000AC010A2E06945795479537952795BA95B0
:10122000C9F7620F731F841F951FA01D0895F999B8
:10123000FECF92BD81BDF89A992780B50895262FDB
:10124000F999FECF92BD81BDF89A019700B40216BC
:1012500039F01FBA20BD0FB6F894FA9AF99A0FBE6A
:1012600008952F923F924F925F926F927F928F924A
:101270009F92AF92BF92CF92DF92EF92FF920F9325
:101280001F93CF93DF93CDB7DEB7CA1BDB0B0FB62F
:10129000F894DEBF0FBECDBF09942A8839884888EC
:1012A0005F846E847D848C849B84AA84B984C88482
:1012B000DF80EE80FD800C811B81AA81B981CE0F79
:1012C000D11D0FB6F894DEBF0FBECDBFED0108955E
:0412D000F894FFCFC0
:1012D40001003232014545313039204C6162203001
:1012E400370053616D75656C20596F6F6E005465DE
:1012F4006D703A004C6F773D00486967683D002582
:1013040033640025642E2564002A004845415400B6
:0A131400412F43002020202000009C
:00000001FF
