:100000000C9434000C9451000C9451000C94510049
:100010000C9451000C9451000C9451000C9451001C
:100020000C9451000C9451000C9451000C9451000C
:100030000C9451000C9451000C9451000C945100FC
:100040000C9451000C9451000C9451000C945100EC
:100050000C9451000C9451000C9451000C945100DC
:100060000C9451000C94510011241FBECFEFD8E026
:10007000DEBFCDBF11E0A0E0B1E0E8E2FBE002C0EE
:1000800005900D92A834B107D9F721E0A8E4B1E0BA
:1000900001C01D92AC35B207E1F70E94D9010C9462
:1000A00092050C9400009BB19F709BB99BB1807F1F
:1000B000892B8BB9299A299A29980895CF93C82F0B
:1000C00028980E9453008C2F8295807F0E945300B5
:1000D0008FE39FE10197F1F700C00000CF910895F1
:1000E000811104C080E8860F0C945E0080ECFBCF89
:1000F0008AB1806F8AB984B1836084B98FE59AEE42
:100100000197F1F700C0000080E30E9453008FE1E7
:100110009EE40197F1F700C0000080E30E945300C5
:100120008FED91E00197F1F700C0000080E30E949D
:10013000530080E20E9453008FE39FE10197F1F7A3
:1001400000C0000088E20E945E008FE00C945E0018
:10015000CF93C82F289A0E9453008C2F8295807FBE
:100160000E9453008FE39FE10197F1F700C0000068
:10017000CF910895CF93DF93EC018991811103C052
:10018000DF91CF9108950E94A800F7CF249A8FE5C0
:1001900099E00197F1F700C0000024988BE091E00E
:1001A0000197F1F700C000001C990AC01C9BFECF0C
:1001B00087EC90E00197F1F700C0000081E008951E
:1001C00080E00895249A8AE08A95F1F700C0249887
:1001D0008FEE90E00197F1F700C000000895249A97
:1001E0008FEE90E00197F1F700C0000024989AE0AC
:1001F0009A95F1F700C00895249A8AE08A95F1F75C
:1002000000C02498E5E3EA95F1F7000083B1E7EC3C
:10021000F0E03197F1F700C0000080710895CF93AE
:10022000DF93D82FC8E0D0FF08C00E94E200D69527
:10023000C150C9F7DF91CF9108950E94EF00F7CF29
:100240000E94C600882331F08CEC0E940F0184E4E8
:100250000C940F0108951F93CF93DF93D8E011E022
:10026000C0E00E94FC008111C12B110FD150C9F7D1
:100270008C2FDF91CF911F910895EF92FF920F93F2
:100280001F93CF93DF93CDB7DEB729970FB6F894BE
:10029000DEBF0FBECDBF24982C982FEF81EE94E0E7
:1002A000215080409040E1F700C000001C990EC032
:1002B00080E029960FB6F894DEBF0FBECDBFDF9168
:1002C000CF911F910F91FF90EF9008950E94C6006B
:1002D000882371F38CEC0E940F018EEB0E940F01BA
:1002E0008E010F5F1F4F7E01EAE0EE0EF11C0E94AF
:1002F0002B01F80181938F01EE15FF05C1F70E94D4
:10030000C6008823A9F28CEC0E940F018EE40E94A3
:100310000F018B810E940F018C810E940F018FE7DA
:100320000E940F018FE891E00197F1F700C00000F3
:100330000E94C600882309F4BBCF8CEC0E940F01F9
:1003400088E40E940F019FEFE9EFF0E09150E04058
:10035000F040E1F700C0000081E0ABCFCF93DF9326
:10036000EC010E94FC00882301F10E94C600882352
:10037000D1F08CEC0E940F018EEB0E940F010E94C5
:100380002B0188830E942B0189830E942B010E94EC
:100390002B010E942B010E942B010E942B010E9425
:1003A0002B010E942B0181E001C080E0DF91CF9101
:1003B0000895CF93DF9300D0CDB7DEB70E947800C9
:1003C0002FEF89E698E1215080409040E1F700C08E
:1003D000000081E00E945E0080E091E00E94BA008F
:1003E00060E081E00E94700081E191E00E94BA002B
:1003F0002FEF83ED90E3215080409040E1F700C063
:10040000000081E00E945E000E943D01811113C046
:1004100060E00E94700082E291E00E94BA002FEF3B
:1004200087EA91E6215080409040E1F700C000004B
:1004300081E00E945E0078940E942001F12CE12C62
:1004400059E0752E6AE0C62ED12C73E3A72E71E019
:10045000B72EE4E16E2EF8E48F2EF1E09F2ECE0150
:1004600001960E94AE01882309F448C02A81822F98
:1004700090E03981982F8827830F911D789E800105
:10048000799E100D112417FF02C0095F1F4F83E0F2
:10049000159507958A95E1F7005C1E4FE016F10669
:1004A00051F1C801B6010E94850297FF03C09195E2
:1004B000819591099F938F93C801B6010E9485028F
:1004C0007F936F931F923F931F922F93BF92AF9290
:1004D0001F926F929F928F920E94AD0260E080E027
:1004E0000E94700088E491E00E94BA000FB6F89470
:1004F000DEBF0FBECDBF0E94200178018FE39CE9D3
:100500000197F1F700C00000AACF97FB072E16F461
:10051000009407D077FD09D00E94990207FC05D00E
:100520003EF4909581959F4F0895709561957F4F0A
:100530000895AA1BBB1B51E107C0AA1FBB1FA6172A
:10054000B70710F0A61BB70B881F991F5A95A9F77C
:1005500080959095BC01CD010895AEE0B0E0E3EB4D
:10056000F2E00C9469050D891E898F89988D26E02B
:100570002C831A83098397FF02C080E090E80197DB
:100580009E838D83AE01455E5F4F698D7A8DCE016E
:1005900001960E94DD024D815E8157FD0AC02F81C8
:1005A0003885421753070CF49A01020F131FF80104
:1005B00010822E96E4E00C948505ABE0B0E0E3EE0B
:1005C000F2E00C945B057C013B018A01FC0117827F
:1005D0001682838181FFC8C1CE0101965C01F701BB
:1005E0009381F30193FD859193FF81913F018823CE
:1005F00009F453C1853239F493FD859193FF8191BC
:100600003F01853229F4B70190E00E94CD04E7CF85
:10061000912C212C312CFFE1F31538F08B3211F1A4
:1006200090F4803209F1833229F137FC3CC020ED8F
:10063000280F2A3050F536FE20C08AE0989E200D03
:100640001124922E06C08D3291F0803371F7689498
:1006500030F8F30193FD859193FF81913F01811162
:10066000DACF21C0689431F8689432F8F2CF6894F8
:1006700033F8EFCF689434F8ECCFEAE02E9E200DEB
:100680001124222E689435F8E4CF8E3229F436FCFA
:1006900004C1689436F8DDCF8C3619F4689437F8C5
:1006A000D8CF8836B1F2982F9F7D95549330E0F0E3
:1006B0008336A1F18337C1F1833509F063C0280186
:1006C000F2E04F0E511CF801C080D180692D70E01E
:1006D00036FC02C06FEF7FEFC6010E94B7044C01E9
:1006E000689437F882010AC00C5F1F4FFFE3F9835B
:1006F00088248394912C6501E89437F833FE2DC04B
:10070000522C8114910471F5552009F468CFB7017A
:1007100080E290E00E94CD045A94F6CFF8018081E7
:1007200089830E5F1F4FE4CF2801F2E04F0E511C6A
:10073000F801C080D180692D70E036FC02C06FEFF7
:100740007FEFC6010E94C2044C018201D5CFB701E0
:1007500080E290E00E94CD042A942814190409F044
:10076000B0F7CECFF60137FC859137FE81916F014E
:10077000B70190E00E94CD0451105A94F1E08F1A15
:100780009108BFCF843619F0893609F077C0F80197
:1007900037FE6BC060817181828193810C5F1F4F36
:1007A000F32DFF763F2E97FF09C0909580957095A9
:1007B00061957F4F8F4F9F4F689437F82AE030E064
:1007C000A5010E94FD04C82ECA188C2C432C36FEAD
:1007D0000CC0E89440F8C91440F434FE05C032FC63
:1007E00003C0F32DFE7E4F2E892C44FE95C0FE01E2
:1007F000EC0DF11D8081803309F087C0242D297E06
:10080000422E842D8870582E43FC95C040FE8FC028
:100810009C2C821418F42C0C922C981844FE91C035
:10082000B70180E390E00E94CD0442FE09C088E752
:1008300090E041FE02C088E590E0B7010E94CD043F
:10084000C91408F48AC0CA94D12C9FEFC91AD90AD6
:10085000CA0CDB1CF60182916F01B70190E00E9487
:10086000CD04AC14BD04B1F74FCF60817181072E68
:10087000000C880B990B0E5F1F4F92CFD32CE8947E
:10088000D4F82AE030E0853739F1232D297FD22EA4
:100890008F3601F148F48835A9F0F70186819781F8
:1008A0002B96E2E10C947705803749F08837A9F759
:1008B000D4FE02C06894D2F820E130E00DC0689404
:1008C000D4F8F6CF34FE03C0822F8660D82E20E104
:1008D00032E002C028E030E0F801D7FE0FC06081AE
:1008E0007181828193810C5F1F4FA5010E94FD04DD
:1008F000C82ECA183D2CE89437F867CF6081718103
:1009000090E080E00E5F1F4FF0CF42FC02C0839466
:1009100078CF8394839475CF842D867809F471CF32
:10092000F6CFB70180E290E00E94CD048394821458
:10093000C0F3512C73CF522C5818821408F46ECF88
:10094000F8CF842D867809F47BCF8BE241FE80E2DC
:1009500047FC8DE2B70190E071CFB70180E390E0F2
:100960000E94CD049A946CCF8FEF9FEF99CFFC013A
:100970000590615070400110D8F7809590958E0FCA
:100980009F1F0895FC016150704001900110D8F73D
:10099000809590958E0F9F1F08950F931F93CF936F
:1009A000DF93182F092FEB018B8181FD09C01FEF09
:1009B0000FEF812F902FDF91CF911F910F9108950D
:1009C00082FF14C02E813F818C819D8128173907B9
:1009D0003CF4E881F981CF010196998388831083E3
:1009E0008E819F8101969F838E83E3CFE885F98571
:1009F000812F0995892BA1F3DACFFA01AA27283094
:100A000051F1203181F1E8946F936E7F6E5F7F4FDB
:100A10008F4F9F4FAF4FB1E03ED0B4E03CD0670F57
:100A2000781F891F9A1FA11D680F791F8A1F911DAA
:100A3000A11D6A0F711D811D911DA11D20D009F4FA
:100A400068943F912AE0269F11243019305D31933C
:100A5000DEF6CF010895462F4770405D4193B3E025
:100A60000FD0C9F7F6CF462F4F70405D4A3318F0CC
:100A7000495D31FD4052419302D0A9F7EACFB4E07D
:100A8000A6959795879577956795BA95C9F7009735
:100A90006105710508959B01AC010A2E06945795D6
:100AA000479537952795BA95C9F7620F731F841F2D
:100AB000951FA01D08952F923F924F925F926F92C3
:100AC0007F928F929F92AF92BF92CF92DF92EF92DE
:100AD000FF920F931F93CF93DF93CDB7DEB7CA1B5F
:100AE000DB0B0FB6F894DEBF0FBECDBF09942A888A
:100AF000398848885F846E847D848C849B84AA8432
:100B0000B984C884DF80EE80FD800C811B81AA81BE
:100B1000B981CE0FD11D0FB6F894DEBF0FBECDBF89
:080B2000ED010895F894FFCFE8
:100B280020202055534320454531303920202020AE
:100B38000020445331384232302054657374657252
:100B480020004E6F204453313842323020666F7592
:100B58006E6400543D307825303278253032783D47
:080B68002533642E25642000F2
:00000001FF
